{
  "contractName": "MarketPlace",
  "abi": [
    {
      "constant": true,
      "inputs": [],
      "name": "name",
      "outputs": [
        {
          "name": "",
          "type": "string"
        }
      ],
      "payable": false,
      "stateMutability": "view",
      "type": "function",
      "signature": "0x06fdde03"
    },
    {
      "constant": true,
      "inputs": [
        {
          "name": "",
          "type": "uint256"
        }
      ],
      "name": "products",
      "outputs": [
        {
          "name": "id",
          "type": "uint256"
        },
        {
          "name": "price",
          "type": "uint256"
        },
        {
          "name": "name",
          "type": "string"
        },
        {
          "name": "owner",
          "type": "address"
        },
        {
          "name": "purchased",
          "type": "bool"
        },
        {
          "name": "description",
          "type": "string"
        }
      ],
      "payable": false,
      "stateMutability": "view",
      "type": "function",
      "signature": "0x7acc0b20"
    },
    {
      "constant": true,
      "inputs": [],
      "name": "productCount",
      "outputs": [
        {
          "name": "",
          "type": "uint256"
        }
      ],
      "payable": false,
      "stateMutability": "view",
      "type": "function",
      "signature": "0xe0f6ef87"
    },
    {
      "inputs": [],
      "payable": false,
      "stateMutability": "nonpayable",
      "type": "constructor",
      "signature": "constructor"
    },
    {
      "anonymous": false,
      "inputs": [
        {
          "indexed": false,
          "name": "id",
          "type": "uint256"
        },
        {
          "indexed": false,
          "name": "price",
          "type": "uint256"
        },
        {
          "indexed": false,
          "name": "name",
          "type": "string"
        },
        {
          "indexed": false,
          "name": "owner",
          "type": "address"
        },
        {
          "indexed": false,
          "name": "purchased",
          "type": "bool"
        },
        {
          "indexed": false,
          "name": "description",
          "type": "string"
        }
      ],
      "name": "ProductCreated",
      "type": "event",
      "signature": "0xfaee42deed79a8bd56c2f3d63efa09645e228cd4d25a8eda90c5f20af9b29d37"
    },
    {
      "anonymous": false,
      "inputs": [
        {
          "indexed": false,
          "name": "id",
          "type": "uint256"
        },
        {
          "indexed": false,
          "name": "price",
          "type": "uint256"
        },
        {
          "indexed": false,
          "name": "name",
          "type": "string"
        },
        {
          "indexed": false,
          "name": "owner",
          "type": "address"
        },
        {
          "indexed": false,
          "name": "purchased",
          "type": "bool"
        }
      ],
      "name": "ProductPurchased",
      "type": "event",
      "signature": "0x48c5f08d17b2433fade7b1a3f2f0820b855cd7b162574eb5ea51c3670972f138"
    },
    {
      "constant": false,
      "inputs": [
        {
          "name": "_name",
          "type": "string"
        },
        {
          "name": "_price",
          "type": "uint256"
        },
        {
          "name": "_desc",
          "type": "string"
        }
      ],
      "name": "createProduct",
      "outputs": [],
      "payable": false,
      "stateMutability": "nonpayable",
      "type": "function",
      "signature": "0xff38ec0f"
    },
    {
      "constant": false,
      "inputs": [
        {
          "name": "_id",
          "type": "uint256"
        }
      ],
      "name": "purchaseProduct",
      "outputs": [],
      "payable": true,
      "stateMutability": "payable",
      "type": "function",
      "signature": "0x38e76a03"
    }
  ],
  "bytecode": "0x6080604052600060015534801561001557600080fd5b506040805190810160405280601a81526020017f54616f6c7465636820436f696e204d61726b657420506c61636500000000000081525060009080519060200190610061929190610067565b5061010c565b828054600181600116156101000203166002900490600052602060002090601f016020900481019282601f106100a857805160ff19168380011785556100d6565b828001600101855582156100d6579182015b828111156100d55782518255916020019190600101906100ba565b5b5090506100e391906100e7565b5090565b61010991905b808211156101055760008160009055506001016100ed565b5090565b90565b610f858061011b6000396000f3fe60806040526004361061006d576000357c0100000000000000000000000000000000000000000000000000000000900463ffffffff16806306fdde031461007257806338e76a03146101025780637acc0b2014610130578063e0f6ef871461029c578063ff38ec0f146102c7575b600080fd5b34801561007e57600080fd5b50610087610430565b6040518080602001828103825283818151815260200191508051906020019080838360005b838110156100c75780820151818401526020810190506100ac565b50505050905090810190601f1680156100f45780820380516001836020036101000a031916815260200191505b509250505060405180910390f35b61012e6004803603602081101561011857600080fd5b81019080803590602001909291905050506104ce565b005b34801561013c57600080fd5b506101696004803603602081101561015357600080fd5b8101908080359060200190929190505050610a0e565b60405180878152602001868152602001806020018573ffffffffffffffffffffffffffffffffffffffff1673ffffffffffffffffffffffffffffffffffffffff1681526020018415151515815260200180602001838103835287818151815260200191508051906020019080838360005b838110156101f55780820151818401526020810190506101da565b50505050905090810190601f1680156102225780820380516001836020036101000a031916815260200191505b50838103825284818151815260200191508051906020019080838360005b8381101561025b578082015181840152602081019050610240565b50505050905090810190601f1680156102885780820380516001836020036101000a031916815260200191505b509850505050505050505060405180910390f35b3480156102a857600080fd5b506102b1610ba7565b6040518082815260200191505060405180910390f35b3480156102d357600080fd5b5061042e600480360360608110156102ea57600080fd5b810190808035906020019064010000000081111561030757600080fd5b82018360208201111561031957600080fd5b8035906020019184600183028401116401000000008311171561033b57600080fd5b91908080601f016020809104026020016040519081016040528093929190818152602001838380828437600081840152601f19601f82011690508083019250505050505050919291929080359060200190929190803590602001906401000000008111156103a857600080fd5b8201836020820111156103ba57600080fd5b803590602001918460018302840111640100000000831117156103dc57600080fd5b91908080601f016020809104026020016040519081016040528093929190818152602001838380828437600081840152601f19601f820116905080830192505050505050509192919290505050610bad565b005b60008054600181600116156101000203166002900480601f0160208091040260200160405190810160405280929190818152602001828054600181600116156101000203166002900480156104c65780601f1061049b576101008083540402835291602001916104c6565b820191906000526020600020905b8154815290600101906020018083116104a957829003601f168201915b505050505081565b6104d6610e65565b6002600083815260200190815260200160002060c060405190810160405290816000820154815260200160018201548152602001600282018054600181600116156101000203166002900480601f0160208091040260200160405190810160405280929190818152602001828054600181600116156101000203166002900480156105a25780601f10610577576101008083540402835291602001916105a2565b820191906000526020600020905b81548152906001019060200180831161058557829003601f168201915b505050505081526020016003820160009054906101000a900473ffffffffffffffffffffffffffffffffffffffff1673ffffffffffffffffffffffffffffffffffffffff1673ffffffffffffffffffffffffffffffffffffffff1681526020016003820160149054906101000a900460ff16151515158152602001600482018054600181600116156101000203166002900480601f0160208091040260200160405190810160405280929190818152602001828054600181600116156101000203166002900480156106b55780601f1061068a576101008083540402835291602001916106b5565b820191906000526020600020905b81548152906001019060200180831161069857829003601f168201915b50505050508152505090506000816060015190508160800151151515610743576040517f08c379a00000000000000000000000000000000000000000000000000000000081526004018080602001828103825260188152602001807f50726f64756374206973206e6f7420617661696c61626c65000000000000000081525060200191505060405180910390fd5b3373ffffffffffffffffffffffffffffffffffffffff168173ffffffffffffffffffffffffffffffffffffffff161415151561077e57600080fd5b8160200151341015151561079157600080fd5b600082600001511180156107ab5750600154826000015111155b15156107b657600080fd5b600182608001901515908115158152505033826060019073ffffffffffffffffffffffffffffffffffffffff16908173ffffffffffffffffffffffffffffffffffffffff1681525050816002600085815260200190815260200160002060008201518160000155602082015181600101556040820151816002019080519060200190610843929190610eb4565b5060608201518160030160006101000a81548173ffffffffffffffffffffffffffffffffffffffff021916908373ffffffffffffffffffffffffffffffffffffffff16021790555060808201518160030160146101000a81548160ff02191690831515021790555060a08201518160040190805190602001906108c7929190610eb4565b509050508073ffffffffffffffffffffffffffffffffffffffff166108fc349081150290604051600060405180830381858888f19350505050158015610911573d6000803e3d6000fd5b507f48c5f08d17b2433fade7b1a3f2f0820b855cd7b162574eb5ea51c3670972f1386001548360200151846040015133600160405180868152602001858152602001806020018473ffffffffffffffffffffffffffffffffffffffff1673ffffffffffffffffffffffffffffffffffffffff16815260200183151515158152602001828103825285818151815260200191508051906020019080838360005b838110156109cb5780820151818401526020810190506109b0565b50505050905090810190601f1680156109f85780820380516001836020036101000a031916815260200191505b50965050505050505060405180910390a1505050565b6002602052806000526040600020600091509050806000015490806001015490806002018054600181600116156101000203166002900480601f016020809104026020016040519081016040528092919081815260200182805460018160011615610100020316600290048015610ac65780601f10610a9b57610100808354040283529160200191610ac6565b820191906000526020600020905b815481529060010190602001808311610aa957829003601f168201915b5050505050908060030160009054906101000a900473ffffffffffffffffffffffffffffffffffffffff16908060030160149054906101000a900460ff1690806004018054600181600116156101000203166002900480601f016020809104026020016040519081016040528092919081815260200182805460018160011615610100020316600290048015610b9d5780601f10610b7257610100808354040283529160200191610b9d565b820191906000526020600020905b815481529060010190602001808311610b8057829003601f168201915b5050505050905086565b60015481565b600082111515610bbc57600080fd5b60008351111515610bcc57600080fd5b60008151111515610bdc57600080fd5b60016000815480929190600101919050555060c06040519081016040528060015481526020018381526020018481526020013373ffffffffffffffffffffffffffffffffffffffff1681526020016000151581526020018281525060026000600154815260200190815260200160002060008201518160000155602082015181600101556040820151816002019080519060200190610c7c929190610eb4565b5060608201518160030160006101000a81548173ffffffffffffffffffffffffffffffffffffffff021916908373ffffffffffffffffffffffffffffffffffffffff16021790555060808201518160030160146101000a81548160ff02191690831515021790555060a0820151816004019080519060200190610d00929190610eb4565b509050507ffaee42deed79a8bd56c2f3d63efa09645e228cd4d25a8eda90c5f20af9b29d3760015483853360008660405180878152602001868152602001806020018573ffffffffffffffffffffffffffffffffffffffff1673ffffffffffffffffffffffffffffffffffffffff1681526020018415151515815260200180602001838103835287818151815260200191508051906020019080838360005b83811015610dba578082015181840152602081019050610d9f565b50505050905090810190601f168015610de75780820380516001836020036101000a031916815260200191505b50838103825284818151815260200191508051906020019080838360005b83811015610e20578082015181840152602081019050610e05565b50505050905090810190601f168015610e4d5780820380516001836020036101000a031916815260200191505b509850505050505050505060405180910390a1505050565b60c060405190810160405280600081526020016000815260200160608152602001600073ffffffffffffffffffffffffffffffffffffffff168152602001600015158152602001606081525090565b828054600181600116156101000203166002900490600052602060002090601f016020900481019282601f10610ef557805160ff1916838001178555610f23565b82800160010185558215610f23579182015b82811115610f22578251825591602001919060010190610f07565b5b509050610f309190610f34565b5090565b610f5691905b80821115610f52576000816000905550600101610f3a565b5090565b9056fea165627a7a72305820eeb33b8b0b85d925b02adfaf623487ee3d499ae47a621a0d83a56c309b94ae3e0029",
  "source": "pragma solidity ^0.5.0;\r\n//pragma experimental ABIEncoderV2;\r\n\r\ncontract MarketPlace {\r\n\r\n    string public name;\r\n    uint public productCount = 0;\r\n\r\n    mapping(uint => Product) public products;\r\n\r\n    modifier onlyBy(address _account) {\r\n        require(msg.sender == _account, \"Unauthorized\");\r\n        _;\r\n    }\r\n\r\n    struct Product {\r\n        uint id;\r\n        uint price;\r\n        string name;\r\n        address payable owner;\r\n        bool purchased;\r\n        string description;\r\n    }\r\n\r\n    event ProductCreated(\r\n        uint id,\r\n        uint price,\r\n        string name,\r\n        address payable owner,\r\n        bool purchased,\r\n        string description\r\n    );\r\n\r\n    event ProductPurchased(\r\n        uint id,\r\n        uint price,\r\n        string name,\r\n        address payable owner,\r\n        bool purchased\r\n    );\r\n\r\n    constructor() public {\r\n        name = \"Taoltech Coin Market Place\";\r\n    }\r\n\r\n    function createProduct(string memory _name, uint _price, string memory _desc) public {\r\n\r\n        require(_price > 0);\r\n        require(bytes(_name).length > 0);\r\n        require(bytes(_desc).length > 0);\r\n\r\n        productCount++;\r\n        products[productCount] = Product(productCount, _price, _name, msg.sender, false, _desc);\r\n        emit ProductCreated(productCount, _price, _name, msg.sender, false, _desc);\r\n    }\r\n\r\n    function purchaseProduct(uint _id) public payable {\r\n        Product memory _product = products[_id];\r\n        address payable _seller = _product.owner;\r\n\r\n        require(!_product.purchased, \"Product is not available\");\r\n        require(_seller != msg.sender);\r\n        require(msg.value >= _product.price);\r\n        require(_product.id > 0 && _product.id <= productCount);\r\n\r\n        // Transfer ownership\r\n        _product.purchased = true;\r\n        _product.owner = msg.sender;\r\n\r\n        products[_id] = _product;\r\n\r\n        address(_seller).transfer(msg.value);\r\n        emit ProductPurchased(productCount, _product.price, _product.name, msg.sender, true);\r\n    }\r\n\r\n//    function getProducts() external view returns(Product[] memory) {\r\n//        uint counter = 0;\r\n//        Product[] memory _products;\r\n//        for(uint i = 0; i < allProducts.length; i++) {\r\n//            if(!allProducts[i].purchased) {\r\n//                _products[counter] = allProducts[i];\r\n//                counter++;\r\n//            }\r\n//        }\r\n//        return _products;\r\n//    }\r\n\r\n//    function myProducts() external view returns(Product[] memory) {\r\n//        uint counter = 0;\r\n//        Product[] memory _products;\r\n//        for(uint i = 0; i < allProducts.length; i++) {\r\n//            if(allProducts[i].owner == msg.sender) {\r\n//                _products[counter] = allProducts[i];\r\n//                counter++;\r\n//            }\r\n//        }\r\n//        return _products;\r\n//    }\r\n}",
  "sourcePath": "C:/dApps/marketplace/src/contracts/MarketPlace.sol",
  "compiler": {
    "name": "solc",
    "version": "0.5.0+commit.1d4f565a.Emscripten.clang"
  },
  "schemaVersion": "3.0.2",
  "updatedAt": "2022-01-23T14:21:37.749Z",
  "devdoc": {
    "methods": {}
  },
  "userdoc": {
    "methods": {}
  }
}